:100000000C94B9070C94E1070C94E1070C94E107F8
:100010000C94E1070C94E1070C94E1070C94E107C0
:100020000C94E1070C94E1070C94E1070C94E107B0
:100030000C94E1070C94E1070C94E1070C94E107A0
:100040000C9492180C94E1070C9402190C94DC188F
:100050000C94E1070C94E1070C94E1070C94E10780
:100060000C9434190C94E10752657365742064751F
:10007000726368676566C3BC68727400000001C083
:100080000000000000000000E0000000000003F09D
:100090001E03001E8003F803F8000000000007F0B4
:1000A0003F8FF83FC007FC07F800000000000FF08A
:1000B0007F3FFC7FC00FF80FF800260000001FE014
:1000C000FFFFFCFFC03FF83FF87FFFFC00003FE070
:1000D000FEFE3CFF80FFF03FF3FFFFFC00007FE1EE
:1000E000FDFC3DFF81FFC07FF7FFFFFE0000FFE347
:1000F000FBF879FF03FFC1FFF0FFC0FF0001FFC75E
:10010000FFF0FFFE0FFF83FFE1FFC03F0001FFCFC5
:10011000EFE1FFFF1FFF87EFC1FF003F0001FFDF9F
:10012000DFC7EFFE3FFF1FBFC3FE003F0003EFFF2F
:10013000FF87DFFEFFFE3FFFC7FC00FE000FCFFF83
:10014000FF0FDF7FFDFE3FFFC7F803FE001F8FFF9D
:10015000FE1FBEFFF9FCFFFF8FF00FFC001F07F82A
:10016000FC3EFEFFF3F9F81F8FF0FFF8003E07FC9E
:10017000FC7FFCFFC7F3F03F9FEFFFE000FE0FFCAA
:10018000FCFFF8FF83F7E03F3FFFFF8001FC0FF922
:10019000FBFFF0FF07EF807F3FFFFE0003F00FF152
:1001A000FFF7E1F807CF007E7FFF800003F00FE14B
:1001B000FFEFC1E00FFF007BFFFE000007C00FE074
:1001C000FFBF80C00FBE00F3FF8000000F800FC094
:1001D000787F80001F180003F00000001F000F80D0
:1001E00000FFFF83FF0000F80000007C3F3FFFFF9F
:1001F000FFFFFFFFFFFFFFFFFFFFFFFE7E3FFFFF51
:10020000FFFFFFFFFFFFFFFFFFFFFFFEFC7FFFFF82
:10021000FFFFFFFFFFFFFFFFFFFFFF00F8FFFFFFF4
:10022000FFFFFFFFFFFFFFFFE000000070F7FFFF91
:10023000FFFFFF7FF800000000000000000000004A
:1002400000000001F80000000000000000000000B5
:1002500000000001F00000000000000000000000AD
:10026000000000006000000000000000000000002E
:10027000000000000000000000000000000000007E
:10028000000000000000000000000000000000006E
:10029000000000000000000000000000000000005E
:1002A0000000000000000000000000000003FFFC50
:1002B00001FFFF803FFFFC0003F00000003FFFFC58
:1002C0000FFFFF81FFFFFE000FFC000000FFFFFC9F
:1002D0003FFFFF87FFFFFE001FFE000001FFFFFC46
:1002E0007FFFFF0FFFFFFC001FFF000003F800006F
:1002F000FE00001FC00000003E1F000003F7FFFCCF
:10030000FCFFFF9F9FFFFE003EEF800007EFFFFD19
:10031000F9FFFFBF7FFFFE007FEF800007EFFFFDCB
:10032000FBFFFFBE7FFFFE007DF7C00007CF80010F
:10033000F3E0003E7C000000FDF7E00007EFF00175
:10034000FBFFFC3E7DFFFC00FBFBE00007EFFF81B5
:10035000FBFFFC3E7FFFFE01F7FBF00003F7FFC150
:10036000FBFFFC3E7FFFFE01F7FDF00003F8FFF10D
:10037000F1C7183E7C387E03EFFDF80001FF87F9D6
:10038000F9FFF83E7DFF3E07EFBEF80000FFF8F9E9
:10039000FBFFFC3E7FFFBE07DF3EFC00003FFEFD93
:1003A000FBFFFC3E7FFFBE0FDF1F7C000003FF7DD5
:1003B000F3FFFC3E7FFFBE0FBE1FBE0000007F7D2F
:1003C000FBE0003E7C1FBE1FBE0FBE0007FFFF7D8F
:1003D000FBFFFFBE7FFFBE1F7E0FDF000FFFFEFD96
:1003E000F9FFFFBF7FFFBE3F7FFFDF000FFFFCF87D
:1003F000FCFFFF9FBFFFBE3EFFFFEF8007FFE3F85C
:10040000FE1FFF1FC7FF3E7EFFFFEF8007FFFFF0CD
:100410007FFFFF8FFFFFFE7DF00007C00FFFFFC0D3
:100420001FFFFF87FFFFFEF9E7FFFFC00FFFFF8001
:100430000FFFFF81FFFFFFFBE7FFFFE007FFFC006F
:1004400001FFFF807FFFFFF3C7FFFFE00000000018
:10045000000000000000000000000000000000009C
:10046000000000000000000000000000000000008C
:10047000003E5B4F5B3E3E6B4F6B3E1C3E7C3E1C2A
:10048000183C7E3C181C577D571C1C5E7F5E1C0070
:10049000183C1800FFE7C3E7FF0018241800FFE727
:1004A000DBE7FF30483A060E2629792926407F05EA
:1004B0000507407F05253F5A3CE73C5A7F3E1C1C00
:1004C00008081C1C3E7F14227F22145F5F005F5FC0
:1004D00006097F017F006689956A606060606094AC
:1004E000A2FFA29408047E040810207E20100808B1
:1004F0002A1C08081C2A08081E101010100C1E0CBC
:100500001E0C30383E3830060E3E0E06000000004D
:100510000000005F00000007000700147F147F1434
:10052000242A7F2A12231308646236495620500079
:1005300008070300001C2241000041221C002A1C65
:100540007F1C2A08083E0808008070300008080850
:100550000808000060600020100804023E51494570
:100560003E00427F400072494949462141494D338E
:100570001814127F1027454545393C4A49493141F5
:10058000211109073649494936464949291E0000C3
:100590001400000040340000000814224114141418
:1005A0001414004122140802015909063E415D5904
:1005B0004E7C1211127C7F494949363E414141220D
:1005C0007F4141413E7F494949417F090909013E37
:1005D000414151737F0808087F00417F410020405E
:1005E000413F017F081422417F404040407F021C70
:1005F000027F7F0408107F3E4141413E7F09090987
:10060000063E4151215E7F09192946264949493252
:1006100003017F01033F4040403F1F2040201F3F18
:100620004038403F6314081463030478040361599D
:10063000494D43007F4141410204081020004141DF
:10064000417F04020102044040404040000307088B
:100650000020545478407F28444438384444442887
:10066000384444287F385454541800087E0902182E
:10067000A4A49C787F0804047800447D40002040B6
:10068000403D007F1028440000417F40007C0478FA
:1006900004787C080404783844444438FC18242442
:1006A0001818242418FC7C080404084854545424C2
:1006B00004043F44243C4040207C1C2040201C3C3F
:1006C0004030403C44281028444C9090907C446436
:1006D000544C4400083641000000770000004136C9
:1006E000080002010204023C2623263C1EA1A1614F
:1006F000123A4040207A3854545559215555794181
:100700002254547842215554784020545579400C55
:100710001E52721239555555593954545459395538
:100720005454580000457C410002457D420001457B
:100730007C407D1211127DF0282528F07C5455450F
:10074000002054547C547C0A097F4932494949327B
:100750003A4444443A324A4848303A4141217A3A8C
:1007600042402078009DA0A07D3D4242423D3D4058
:1007700040403D3C24FF2424487E4943662B2FFC07
:100780002F2BFF0929F620C0887E090320545479B5
:10079000410000447D413048484A32384040227A86
:1007A000007A0A0A727D0D19317D2629292F282603
:1007B0002929292630484D4020380808080808080B
:1007C0000808382F10C8ACBA2F102834FA00007B64
:1007D000000008142A142222142A14085500550077
:1007E00055AA55AA55AAFF55FF55FF000000FF0066
:1007F000101010FF00141414FF001010FF00FF1061
:1008000010F010F0141414FC001414F700FF000092
:10081000FF00FF1414F404FC141417101F10101F11
:10082000101F1414141F00101010F0000000001FFF
:10083000101010101F10101010F010000000FF100A
:100840001010101010101010FF10000000FF140006
:1008500000FF00FF00001F10170000FC04F4141438
:100860001710171414F404F40000FF00F714141404
:1008700014141414F700F7141414171410101F1084
:100880001F141414F4141010F010F000001F101FA7
:100890000000001F14000000FC140000F010F01015
:1008A00010FF10FF141414FF141010101F0000008C
:1008B00000F010FFFFFFFFFFF0F0F0F0F0FFFFFF90
:1008C0000000000000FFFF0F0F0F0F0F38444438E7
:1008D00044FC4A4A4A347E02020606027E027E0236
:1008E00063554941633844443C04407E201E200641
:1008F000027E020299A5E7A5991C2A492A1C4C727E
:1009000001724C304A4D4D303048784830BC625A04
:10091000463D3E494949007E0101017E2A2A2A2A94
:100920002A44445F444440514A444040444A514070
:100930000000FF0103E080FF000008086B6B083631
:1009400012362436060F090F0600001818000000A2
:100950001010003040FF0101001F01011E00191D91
:100960001712003C3C3C3C00000000000001030763
:100970000F1F3F7F0080C0E0F0F8FCFEDB40A4A624
:100980002EAF2000A1C8D300408DAED580A80000B6
:10099000600000000000000000000000000000E017
:1009A0000000000000000000000000000001E00066
:1009B00000000000000000000000000001F0000046
:1009C000000000000000000000000003F000000034
:1009D0000000000000000000000007F00000000020
:1009E00000000000000000000007F8000000000008
:1009F00000000000000000000FF800000003C0002D
:100A00007E000001E0007F0FF800000003C000FE40
:100A1000000001E000FFEFF800000003C000FE004E
:100A20000001E000FFFFF800000003C000F000003C
:100A3000000F007FFE7FC0000003C000F000000038
:100A40000F003FFE7FF83FF1FBCFFCFEF3BC3DEF14
:100A5000E01FFE7FFF7FFBFFDFFEFEFFBC3DEFE000
:100A60001FC6FFFF7FFBFFDFFEFEFFBC3DEFE00F79
:100A7000E3C7FE787BC3DE1EF0FFBC3DEF0007FF3F
:100A800087FC787BC3DE1EF0F83C3DEF0001FFFFE2
:100A9000F0007BC3C01EF0F03C3DEF0001F37FE0AF
:100AA0003FFBC3CFFEF0F03C3DEF0003E33F807F10
:100AB000FBC3DFFEF0F03C3DEF0007E73C00787B36
:100AC000C3DE1EF0F03C3DEF0007FFBE00787BC3A5
:100AD000DE1EF0F03C3DEF0007FFFE00787BC3DE3A
:100AE0001EF0F03C3DEF000FFFFE007FFBFFDFFE3E
:100AF000F0F03FFDEFE00FFFFF007FFBFFDFFEF0B8
:100B0000F03FFDEFE00FF9FF003E79F9CF9EF0F0E6
:100B10001F3DE7E01FF1FF000000000000000000A3
:100B20000000001F80FF007FFFFFFFFFFFFFFFFFB0
:100B3000FFE01C007F007FFFFFFFFEB46D888D1873
:100B4000E000001F007FFFFFFFFE95AD7DB577E061
:100B500000000F007FFFFFFFFEA5AD9D8D19E00097
:100B60000006007FFFFFFFFEB5ADEDB57EE00000A3
:100B70000000000180000000000000000000038071
:100B800000000000000000000007C000000000009E
:100B90000000000007C00000000000000000000F7F
:100BA000C00000000000000000001FE00000000086
:100BB00000000000001FE000000000000000000036
:100BC0003FE00000000000000000003FF0000000D7
:100BD0000000000000007FF0000000000000001F87
:100BE000F87FF0000000000000003FFE7FF00000F2
:100BF00000000000003FFF7FF00000000000000048
:100C00001FFFFBE0000000000000000FFFF9FFC025
:100C10000000000000000FFFF9FFF80000000000D6
:100C20000007FFF1FFFF00000000000003FC73FF5E
:100C3000FF80000000000001FE3FFFFF8000000079
:100C4000000000FF1E0FFF000000000000007FFEFC
:100C50001FFC000000000000003FFFFFF800000044
:100C6000000000000FDFFFE0000000000000001F98
:100C700019FFC0000000000000003F3CFF00000022
:100C800000000000007E7CF8000000000000000072
:100C90007FFE7C0000000000000000FFFFFC000061
:100CA000000000000000FFFFFE0000000000000048
:100CB00000FFFFFE0000000000000001FFEFFE004B
:100CC00000000000000001FFCFFE00000000000057
:100CD0000003FF07FE0000000000000003FC07FE09
:100CE0000000000000000003F003FE000000000010
:100CF0000000018000FE0000000000000000000075
:100D00007E000000000000000000003E0000000027
:100D10000000000000000C00000000000007800040
:100D2000FC000003C0000000078001FC000003C0BD
:100D3000000000078001FC000003C00000000780E5
:100D400001E00000001E000000078001E00000003C
:100D50001E007FE3F79FF9FDE7787BDFC0FFF7FF19
:100D6000BFFDFDFF787BDFC0FFF7FFBFFDFDFF7814
:100D70007BDFC0F0F787BC3DE1FF787BDE00F0F75A
:100D800087BC3DE1F0787BDE0000F787803DE1E045
:100D9000787BDE007FF7879FFDE1E0787BDE00FF58
:100DA000F787BFFDE1E0787BDE00F0F787BC3DE12F
:100DB000E0787BDE00F0F787BC3DE1E0787BDE0089
:100DC000F0F787BC3DE1E0787BDE00FFF7FFBFFD79
:100DD000E1E07FFBDFC0FFF7FFBFFDE1E07FFBDF6E
:100DE000C07CF3F39F3DE1E03E7BCFC000000000FC
:100DF00000000000000000FFFFFFFFFFFFFFFFFFFC
:100E0000FFC0FFFFFFFFFD68DB111A31C0FFFFFFCE
:100E1000FFFD2B5AFB6AEFC0FFFFFFFFFD4B5B3B63
:100E20001A33C0FFFFFFFFFD6B5BDB6AFDC035308F
:100E3000487A003630487A00566964656F20466FFC
:100E4000726D61743A200047656C6164656E65205F
:100E5000526567696F6E3A2000496E697469616C0A
:100E60006973696572652E2E2E004E6F6D61642068
:100E70005377697463686C657373004F4C45442005
:100E8000446973706C6179206E696368742067656A
:100E900066756E64656E210053656761204E6F6DE7
:100EA0006164205377697463686C657373204D6F58
:100EB00064202D205374617274696E672E2E2E008B
:100EC00052657365742061757367656CC3B673741E
:100ED000003530487A003630487A00566964656FCC
:100EE00020466F726D61742067657765636873650E
:100EF0006C74207A753A2000526567696F6E2067BE
:100F0000657765636873656C74207A753A200000B4
:100F1000000000240027002A00000000002500280F
:100F2000002B000000000023002600290004040418
:100F30000404040404020202020202030303030382
:100F4000030102040810204080010204081020015F
:100F50000204081020000000080002010000030441
:100F60000700000000000000002200FF2100531ACB
:100F7000932211241FBECFEFD8E0DEBFCDBF24E007
:100F8000A8EAB2E001C01D92AA36B207E1F712E06A
:100F9000A0E0B1E0E4E9FAE402C005900D92A83ABD
:100FA000B107D9F717E0C8EBD7E004C02197FE01DD
:100FB0000E943923C73BD107C9F70E94D61A0C9467
:100FC0003D250C9400000895833081F028F4813091
:100FD00099F08230A9F008958730A9F08830C9F0DF
:100FE0008430B1F4809180008F7D03C080918000B7
:100FF0008F7780938000089584B58F7784BD08959E
:1010000084B58F7DFBCF8091B0008F778093B00047
:1010100008958091B0008F7DF9CFCF93DF93E7E5FE
:10102000FFE08491E3E4FFE0D491EFE2FFE0C491BC
:10103000CC23A1F081110E94E407EC2FF0E0EE0F29
:10104000FF1FED5DF04FA591B491EC91ED2381E090
:1010500090E009F480E0DF91CF91089580E090E086
:10106000FACF1F93CF93DF93282F30E0F901EB5A8B
:10107000F04F8491F901EF5BF04FD491F901E35DFA
:10108000F04FC491CC23A9F0162F81110E94E407E0
:10109000EC2FF0E0EE0FFF1FE75EF04FA591B4914B
:1010A0008FB7F894EC91111108C0D095DE23DC9332
:1010B0008FBFDF91CF911F910895DE2BF8CFCF9393
:1010C000DF9390E0FC01EF5BF04F2491835D904F44
:1010D000FC0184918823D1F090E0880F991FFC01D6
:1010E000E15FF04FA591B491FC01E75EF04FC5912F
:1010F000D491623071F49FB7F8943C91822F80951F
:1011000083238C93E8812E2B28839FBFDF91CF917F
:1011100008958FB7F894EC912E2B2C938FBFF6CFB8
:101120003FB7F8948091750390917603A09177036F
:10113000B091780326B5A89B05C02F3F19F0019602
:10114000A11DB11D3FBFBA2FA92F982F8827BC0121
:10115000CD01620F711D811D911D42E0660F771F49
:10116000881F991F4A95D1F708958F929F92AF9249
:10117000BF92CF92DF92EF92FF924B015C010E94EF
:1011800090086B017C010E9490086C197D098E0902
:101190009F09683E734081059105A8F321E0821AFA
:1011A0009108A108B10888EEC80E83E0D81EE11CA2
:1011B000F11C81149104A104B10429F7FF90EF9070
:1011C000DF90CF90BF90AF909F908F9008952FB7F2
:1011D000F894609171037091720380917303909100
:1011E00074032FBF089508950895EF92FF920F930F
:1011F0001F93CF93DF938C017B01D0E0C0E0F70118
:10120000EC0FFD1F6491662361F0D801ED91FC9114
:101210000190F081E02DC8010995892B11F02196EC
:10122000EECFCE01DF91CF911F910F91FF90EF9004
:101230000895AF92BF92CF92DF92EF92FF920F93F9
:101240001F93CF93DF936C017B018B01040F151F5C
:10125000EB015E01AE18BF08C017D10759F06991C4
:10126000D601ED91FC910190F081E02DC601099528
:10127000892B79F7C501DF91CF911F910F91FF90D5
:10128000EF90DF90CF90BF90AF900895FC01538D09
:10129000448D252F30E0842F90E0821B930B541750
:1012A00010F0CF96089501970895FC01918D828DDD
:1012B000981761F0A28DAE0FBF2FB11D5D968C9176
:1012C000928D9F5F9F73928F90E008958FEF9FEFB5
:1012D0000895FC01918D828D981731F0828DE80F71
:1012E000F11D858D90E008958FEF9FEF0895FC012B
:1012F000918D228D892F90E0805C9F4F821B9109F8
:101300008F73992708958DE793E00E94770921E074
:10131000892B09F420E0822F089580E090E0892B4A
:1013200029F00E94830981110C9400000895FC01AA
:10133000A48DA80FB92FB11DA35ABF4F2C91848D36
:1013400090E001968F739927848FA689B7892C9393
:10135000A089B1898C91837080648C93938D848DE6
:10136000981306C00288F389E02D80818F7D8083E9
:101370000895EF92FF920F931F93CF93DF93EC01A9
:1013800081E0888F9B8D8C8D98131AC0E889F9892C
:10139000808185FF15C09FB7F894EE89FF8960832F
:1013A000E889F98980818370806480839FBF81E0B0
:1013B00090E0DF91CF911F910F91FF90EF900895F2
:1013C000F62E0B8D10E00F5F1F4F0F731127E02ECD
:1013D0008C8D8E110CC00FB607FCFACFE889F98905
:1013E000808185FFF5CFCE010E949709F1CFEB8D6B
:1013F000EC0FFD2FF11DE35AFF4FF0829FB7F894D9
:101400000B8FEA89FB8980818062CFCFCF93DF93F6
:10141000EC01888D8823B9F0AA89BB89E889F9890C
:101420008C9185FD03C0808186FD0DC00FB607FC41
:10143000F7CF8C9185FFF2CF808185FFEDCFCE0174
:101440000E949709E9CFDF91CF910895EF92FF9223
:101450000F931F93CF93DF93EC01EC80FD806E150B
:101460007F050CF070C057FF04C0240F351F50E0FB
:1014700040E08E819F81FA01E20FF31F8E179F07D4
:101480001CF49C01241B350B121613060CF05BC0D8
:10149000922F842F8695869586958E9DD0018F9D5F
:1014A000B00D11246A0F7B1FAF8DB8A1A60FB71F17
:1014B000477049F188E0841B482F682F70E0FB01DA
:1014C000EC58F64FE491281708F063C0621B7109CD
:1014D0002FEF30E002C0359527956A95E2F7E223B9
:1014E0000130110539F0B0F10230110561F58C9130
:1014F000E82702C08C91E82BEC93941720F12C8103
:101500003D81A20FB31FE92FE41BE83078F00230D1
:10151000110521F58E2F9C9190959C932C813D81F6
:10152000A20FB31F88508830B0F7E770EE2359F050
:10153000F0E0E459F64FE49101301105F9F010F1B3
:101540000230110519F1DF91CF911F910F91FF909A
:10155000EF900895E0958C91E823CECF81E00115BE
:10156000110509F480E081959E2F8C932C813D819B
:10157000A20FB31F98509830C0F7D7CF8C91E82BAB
:10158000EC93E1CFE0958C91E823FACF8C91E8279A
:10159000F7CF0130110509F4ADCFE0F202301105AB
:1015A00009F4A5CFAE0DBF1DAECF0F931F93CF9300
:1015B000DF9377FF04C0260F371F70E060E0DC0187
:1015C0001496CD91DC91FB01E20FF31FCE17DF07DC
:1015D0001CF49E01261B370B121613064CF5FA015C
:1015E00057FD3796A3E0F595E795AA95E1F7EC9FAF
:1015F000D001ED9FB00DFC9FB00D11246A0F7B1F31
:10160000DC015F96ED91FC91E60FF71F47705527BF
:1016100081E090E001C0880F4A95EAF7482F013039
:10162000110559F0A8F02E0F3F1F02301105E1F00F
:10163000DF91CF911F910F9108952E0F3F1FE21759
:10164000F307B1F38191DF011197842B8C93F7CFCE
:1016500080952E0F3F1FE217F30751F39191DF01A1
:10166000119798239C93F7CFE217F30709F3819121
:10167000DF01119784278C93F7CF0F931F93FA0103
:10168000DC0156964C9156974230E9F04330A1F177
:10169000413061F514964D915C91DA01AE1BBF0BA0
:1016A000FD01E21BF30B77FD0BC0DC0116964D919B
:1016B0005C916417750724F4AB01BF010E94D50A41
:1016C0001F910F91089514964D915C91DA01A61B1C
:1016D000B70BBD0161507109DC0116964D915C910B
:1016E000DA01AE1BBF0BFD01E21BF30B77FDE8CF68
:1016F000AF010E94260AE4CF16964D915C91DA0163
:10170000A61BB70BBD0161507109CDCF0F931F937D
:10171000FA01DC0156964C9156974230A9F04330BD
:1017200091F1413019F514964D915C91DA01AE1B9F
:10173000BF0BFD013197F7FD04C0AB01BF010E9453
:10174000260A1F910F91089514964D915C91DA012C
:10175000A61BB70BBD01DC0116964D915C91DA0119
:10176000AE1BBF0BFD013197621B730BF7FDE9CF79
:10177000DC0116964D915C91E417F50714F7AF0163
:101780000E94D50ADECF16964D915C91DA01A61B18
:10179000B70BBD01621B730BCECFFC0177FD64C09C
:1017A00080859185681779070CF05EC057FD5CC095
:1017B00082859385481759070CF056C08689823078
:1017C000B1F0833029F1813041F484819581841B0B
:1017D000950BAB01BC01615071092130310509F154
:1017E00008F443C02230310509F463C008958481B0
:1017F0009581DC01A61BB70BBD0161507109868183
:101800009781DC01A41BB50BAD0141505109E5CF17
:1018100086819781861B970BBA01AC014150510913
:10182000DCCFCA0157FD0796A3E095958795AA9549
:10183000E1F7A481B5818A9F90018B9F300D9A9F1B
:10184000300D1124620F731F078CF0A1E02DE60FFD
:10185000F71F4770552721E030E001C0220F4A955D
:10186000EAF78081822B80830895CA0157FD07968D
:1018700033E0959587953A95E1F7A481B5818A9FE4
:1018800090018B9F300D9A9F300D1124620F731FB2
:10189000078CF0A1E02DE60FF71F4770552781E078
:1018A00090E001C0880F4A95EAF7809590818923DE
:1018B000DACFCA0157FD079623E0959587952A95BB
:1018C000E1F7A481B5818A9F90018B9F300D9A9F8B
:1018D000300D1124620F731F078CF0A1E02DE60F6D
:1018E000F71F4770552721E030E001C0220F4A95CD
:1018F000EAF780818227B7CF08958EBD00000DB42E
:1019000007FEFDCF8EB508958CBD9DBD0895089549
:10191000FC016370668B84819581268137816130FB
:1019200039F0633029F091878087338722870895C3
:10193000318720879387828708952F923F924F9215
:101940005F926F927F928F929F92AF92BF92CF924F
:10195000DF92EF92FF920F931F93CF93DF93CDB758
:10196000DEB76A970FB6F894DEBF0FBECDBF9A8F71
:10197000898F7A8369834A01D22E18870F833701B2
:10198000BC2CDC0159962D913C915A9721153105BB
:1019900009F015C118968D919C91199768177907D0
:1019A0000CF0D7C11A968D919C91481759070CF0ED
:1019B000D0C14C2C512CB6E0CB9E600D711D112472
:1019C0007C876B87161617060CF0C3C1EA2DF0E072
:1019D000FA87E98793E0EE0FFF1F9A95E1F7F88BFE
:1019E000EF87CF01840F951F181619060CF0B1C1AF
:1019F000A98DBA8D58968C91811104C0BFEABD158E
:101A000008F4D394A98DBA8DED91FC9111970284BD
:101A1000F385E02DCD010995B5E0DB9EC0011124D1
:101A2000E981FA81FC83EB83312C212C9C01245920
:101A30003B4F388F2F8B4A2D50E05E8B4D8BEF89BB
:101A4000F88DE20DF31D44919E828D82D12CC12C24
:101A500069817A81620D731D7A8B698B842F90E086
:101A60009C8B8B8BE98DFA8DA081B18140FF82C068
:101A7000F1E0BF126FC0AF126DC01C96ED91FC91EA
:101A80002F813885A4014C0D5D1D69897A89898D66
:101A90009A8D0995EB89FC89F595E7954E2F5FEFB7
:101AA000C51AD50A6D817E818D899E89680F791F3F
:101AB0007E836D8398E0C916D10481F6AFEF2A1AB0
:101AC0003A0AEB81FC81E40DF51DFC83EB83F5E024
:101AD0002F16310409F0B3CF2F813885261537052D
:101AE000B9F0A98DBA8DED91FC91B1E0BB1257C050
:101AF000AB1255C069817A816B5F7F4F0088F18995
:101B0000E02D830128E030E0A401898D9A8D0995AC
:101B1000A98DBA8DED91FC9111970688F789E02D7A
:101B2000CD016A960FB6F894DEBF0FBECDBFDF9130
:101B3000CF911F910F91FF90EF90DF90CF90BF90CA
:101B4000AF909F908F907F906F905F904F903F905D
:101B50002F9009941E96ED91FC91EF80F8840985F1
:101B60001A8592014D815E816B817C81898D9A8D70
:101B7000099590CF2F8138852615370509F48ACF2E
:101B800031E0B31207C0A31205C01C96ED91FC9181
:101B9000930178CF1E96ED91FC917301E0CF6B8598
:101BA0007C85641975090684F785E02D73010F851E
:101BB00018899201A401898D9A8D0995A9CFF901FF
:101BC00034969491329745915491D91AB7E0DB9E9F
:101BD000400D511D1124F901259134913C8B2B8B23
:101BE000FA0125903490FA0132967490319634912E
:101BF000398B329664903196449041E04C1518F040
:101C00004A1508F07FC0662D062C000C770B7C83EC
:101C10006B83842D042C000C990B9E838D83A98DDE
:101C2000BA8DED91FC9111970284F385E02DCD01E1
:101C30000995512CD12CC12CEA2DF0E0FA87E987C7
:101C40002B2D30E03C872B87A401440D511D47FC10
:101C50005A95588F4F8B69817A81660D711D67FC8B
:101C60007A957E876D877989C71608F051CF2C2D1C
:101C700030E04D815E81420F531FA985BA854A9F8E
:101C8000C0014B9F900D5A9F900D1124FC01E80D4F
:101C9000F91DF88BEF87852D612C4F89588D420FE8
:101CA000531F5E8B4D8B671408F050C0442443943F
:101CB000480E877041F4C1010196EB89FC89E20D61
:101CC000F31DD4901C01D7FE19C0A98DBA8DED91DA
:101CD000FC91662D70E0B1E0BB1219C0AB1217C0C9
:101CE0002D853E85620F731F0484F585E02D2F81BD
:101CF00038854D895E89898D9A8D0995DD0C6394AF
:101D0000842DD1CF1E821D821C821B8288CF4B81E5
:101D10005C81640F751FAB85BC856A9FC0016B9F9A
:101D2000900D7A9F900D112469817A81680F791F37
:101D30000684F785E02DEF80F88409851A859D01DA
:101D40004F855889898D9A8D0995D8CF570CC394A2
:101D50008ACF6A960FB6F894DEBF0FBECDBFDF9173
:101D6000CF911F910F91FF90EF90DF90CF90BF9098
:101D7000AF909F908F907F906F905F904F903F902B
:101D80002F9008958F929F92AF92CF92EF92FF92F1
:101D90000F931F93CF93DF93EC01262F898D9A8D9C
:101DA000009709F051C06A30D1F41D861C868D89D8
:101DB00048E0849F900111248E859F85820F931F98
:101DC0009F878E8781E090E0DF91CF911F910F91E7
:101DD000FF90EF90CF90AF909F908F9008956D30CF
:101DE00089F3CC88AD888F898823C1F08C859D8547
:101DF00036E0C39E800D911D1124488559854817F2
:101E0000590764F44E855F851D861C8638E0A39EC5
:101E1000C0011124840F951F9F878E87EA88FB8855
:101E2000088919894E855F856C857D85CE010E9464
:101E30009D0C2C898C859D8546E0249F800D911DED
:101E400011249D878C87BECF6A3069F41D861C865D
:101E5000FC013896E4912D898E859F85E29F800D47
:101E6000911D1124ADCF6D3009F4ACCFFC01349637
:101E70003491631708F4A6CF3296E491E61708F47C
:101E8000A1CFFC01329685909490462F431B342FAE
:101E900047E0349F800C911C1124F4013296349158
:101EA0003196E4913323A9F1EE2399F1CC88F40122
:101EB0003596E491AD884F89442301F10E2E000C34
:101EC000FF0BE30FF11DCE9EA001CF9E500D1124FC
:101ED0006C857D85460F571F688579856417750762
:101EE0006CF44E855F851D861C86FC013896E49156
:101EF000AE9E400D511D11245F874E87EA88FB88F6
:101F0000088919894E855F856C857D85CE010E9483
:101F10009D0CF4013496E4912C898C859D85E29F7B
:101F2000800D911D11248DCF6F927F928F929F9281
:101F3000AF92BF92CF92DF92EF92FF920F931F93D7
:101F4000CF93DF93EC016B015A0139014801E8811D
:101F5000F9810284F385E02D0995E881F9810288F1
:101F6000F389E02D87019301A501B601CE01099502
:101F7000A501480D591D41505109E881F981028898
:101F8000F389E02D9301B601CE010995E881F9812D
:101F90000088F189E02D9401A501B601CE010995D3
:101FA000C60CD71CB60161507109E881F98100881F
:101FB000F189E02D9401A501CE010995E881F9810F
:101FC0000688F789E02DCE01DF91CF911F910F9107
:101FD000FF90EF90DF90CF90BF90AF909F908F9049
:101FE0007F906F9009946F927F928F929F92AF92A1
:101FF000BF92CF92DF92EF92FF920F931F93CF93F6
:10200000DF935C01EB016A01490138018701DC01C2
:10201000ED91FC916217730719F5641675062CF0A3
:10202000962D872D3A01C92ED82E960126193709EB
:102030002F5F3F4F048CF58DE02DA301BE01C5013C
:102040000995DF91CF911F910F91FF90EF90DF9055
:10205000CF90BF90AF909F908F907F906F9008959A
:102060004615570591F42617370724F0892D4B01A3
:10207000C22FD82F9E01281939092F5F3F4F068C98
:10208000F78DE02DA601B401DACF0284F385E02DAF
:102090000995D501ED91FC910488F589E02D830126
:1020A0009401A601BE01C5010995D501ED91FC91F0
:1020B0000688F789E02DC501DF91CF911F910F911F
:1020C000FF90EF90DF90CF90BF90AF909F908F9058
:1020D0007F906F900994EF92FF920F931F93DC0112
:1020E0001A960D911C911B9718962D913C9119975A
:1020F000ED91FC9100A0F1A1E02D7B0150E040E0CA
:1021000070E060E009951F910F91FF90EF900895A6
:102110004F925F926F927F928F929F92AF92BF92F7
:10212000CF92DF92EF92FF920F931F93CF93DF93A3
:102130006C012B015A0139014801DC01ED91FC9140
:102140000284F385E02D0995E201640C751CD6012B
:10215000ED91FC91C615D7055CF40088F189E02D5E
:1021600087019401A501BE01C60109952196EFCF13
:102170000688F789E02DC601DF91CF911F910F915D
:10218000FF90EF90DF90CF90BF90AF909F908F9097
:102190007F906F905F904F9009948F929F92AF9233
:1021A000BF92CF92DF92EF92FF920F931F93CF9344
:1021B000DF93EC015B014A016901E881F981028446
:1021C000F385E02D099595012C0D3D1D2150310918
:1021D000E881F9810488F589E02D78018401A40162
:1021E000B501CE010995E881F9810688F789E02DCE
:1021F000CE01DF91CF911F910F91FF90EF90DF9073
:10220000CF90BF90AF909F908F9009948F929F92A4
:10221000AF92BF92CF92DF92EF92FF920F931F93F4
:10222000CF93DF93EC015B014A0169017801E881FA
:10223000F9810284F385E02D0995C80CD91C86012B
:1022400001501109E881F9810488F589E02D950193
:10225000A401B501CE010995E881F9810688F789C5
:10226000E02DCE01DF91CF911F910F91FF90EF9064
:10227000DF90CF90BF90AF909F908F900994EF9296
:10228000FF920F931F93DC01ED91FC9100A0F1A14F
:10229000E02D09951F910F91FF90EF9008950F93F6
:1022A0001F93DC01ED91FC91068CF78DE02D0995D3
:1022B0001F910F9108950F931F93DC01ED91FC91F5
:1022C000048CF58DE02D09951F910F910895DC0187
:1022D000ED91FC910084F185E02D09943F924F929D
:1022E0005F926F927F928F929F92AF92BF92CF92A6
:1022F000DF92EF92FF920F931F93CF93DF9300D063
:1023000000D0CDB7DEB75C013B016A01490128016D
:1023100087E0480E511C93E0559447949A95E1F755
:10232000CA018E0D9F1D9A838983F12CE12C312CDB
:102330001C821B828B819C8187709927330C892B8F
:1023400061F4EB81FC8183E0F595E7958A95E1F7EF
:10235000EE0DFF1DE80DF91D349037FE0AC021E097
:1023600030E0A6016B817C81660D771DC5010E945E
:1023700067118B819C8101969C838B8308171907B9
:10238000C9F69FEFC91AD90AE40CF51C89819A8114
:10239000C816D90669F60F900F900F900F90DF9135
:1023A000CF911F910F91FF90EF90DF90CF90BF9052
:1023B000AF909F908F907F906F905F904F903F90E5
:1023C00008952F923F924F925F926F927F928F92D9
:1023D0009F92AF92BF92CF92DF92EF92FF920F93B4
:1023E0001F93CF93DF9300D000D000D0CDB7DEB7DE
:1023F0003C016A013E832D83FC82EB825801A41AC2
:10240000B50AB7FE03C0B194A194B1088D809E8037
:10241000861A970A97FE03C09194819491088A14B2
:102420009B045CF0902F812F0D811E819D838E83F4
:102430009C2D8D2D6B01692F782F0C151D055CF0DF
:102440009D818E817E836D83692F782F902F812FC0
:102450008601C92ED82E1601201A310A2B012D8192
:102460003E81421A530A57FE03C0519441945108C9
:10247000710137FE03C03FEFE31AF30AF594E794C6
:102480008D819E81861797075CF5A1E0B0E0BA8345
:10249000A983C016D1064CF1D301ED91FC910484BF
:1024A000F585E02D2B813C81A8016D817E818A1408
:1024B0009B041CF04D815E81B801C3010995E418AD
:1024C000F508F7FE0AC02D813E8189819A81280F87
:1024D000391F3E832D83E20CF31C0F5F1F4FD9CFB2
:1024E0002FEF3FEF3A832983D4CF26960FB6F89487
:1024F000DEBF0FBECDBFDF91CF911F910F91FF9037
:10250000EF90DF90CF90BF90AF909F908F907F9093
:102510006F905F904F903F902F9008950895209175
:102520000E03260F3327331F21323105ECF420919F
:102530003203FC0190E080E0243069F082E00895ED
:10254000A0910E032191AC0142515D4FA40FB52F14
:10255000B11D2C930196861798F380910E03680F96
:1025600060930E0380E0089581E008951092320395
:1025700081E0809334031092330361E082E10E9492
:10258000310861E083E10E943108E9EBF0E08081ED
:102590008E7F808380818D7F808388E48093B800E4
:1025A00085E48093BC000895CF93DF9391E09093EE
:1025B000ED028823B9F0C091B800D091BA008091A3
:1025C000BC008A7B8093BC0060E082E10E943108FD
:1025D00060E083E10E9431080E94B612D093BA00F5
:1025E000C093B800DF91CF910895E0915E03809190
:1025F0005D03E81730F4F0E0E853FD4F808190E090
:1026000008958FEF9FEF089590915E0380915D0391
:102610002FEF3FEF981748F4E92FF0E0E853FD4F14
:10262000208130E09F5F90935E03C90108958091FF
:102630005D0390915E03891B990B0895CF92DF9201
:10264000EF92FF920F931F93CF93DF937C01CB0107
:102650008A0120917C03222389F0EB016B01C40ED7
:10266000D51ECC15DD0569F06991D701ED91FC917E
:102670000190F081E02DC7010995F3CF642F0E94EE
:102680008F12C801DF91CF911F910F91FF90EF90B2
:10269000DF90CF900895CF93DF931F92CDB7DEB731
:1026A000698320917C032223F9F020917903203261
:1026B00058F021E030E0FC013383228390E080E099
:1026C0000F90DF91CF91089580917A03E82FF0E089
:1026D000E855FD4F998190838F5F80937A038093B3
:1026E000790381E090E0ECCF61E0CE0101960E9499
:1026F0008F12F7CFCF92DF92EF92FF920F931F933B
:10270000CF93DF93D091790381E0D13208F09CC060
:10271000C0917B030E9490086B017C018091320381
:1027200081116CC082E08093320381E08093340396
:102730008FEF8093310310925603D0935503A8EA8C
:10274000B2E0E5E3F3E080E0D8138DC010925703C8
:1027500080915703CC0FC82BC0935703809133034C
:10276000813009F084C0109233030E9490086B01FD
:102770007C01809157038093BB008091E902909186
:10278000EA02A091EB02B091EC02892B8A2B8B2BF1
:10279000A1F00E9490080091E9021091EA022091B4
:1027A000EB023091EC026C197D098E099F09061726
:1027B00017072807390708F442C08091BC0083FD41
:1027C000D8CF85EC8093BC000E9490086B017C01FF
:1027D00080913203823009F44CC0809131038F3FE5
:1027E00009F469C080913103803209F466C0809198
:1027F0003103803309F463C084E026C08091E9028C
:102800009091EA02A091EB02B091EC02892B8A2B05
:102810008B2B09F483CF0E9490080091E90210915C
:10282000EA022091EB023091EC026C197D098E09CD
:102830009F09061717072807390708F06FCF8091FF
:10284000E8020E94D41285E010927A031092790374
:1028500010927C03DF91CF911F910F91FF90EF9029
:10286000DF90CF9008959D9191938F5F6DCF85EE0E
:10287000A9CF8091E9029091EA02A091EB02B09178
:10288000EC02892B8A2B8B2B09F4A2CF0E94900893
:102890000091E9021091EA022091EB023091EC02E2
:1028A0006C197D098E099F09061717072807390734
:1028B00008F08ECFC4CF80E0C7CF82E0C5CF83E0E1
:1028C000C3CFEF92FF920F931F93CF93DF937C01BF
:1028D000C62F8091430490914404009709F459C095
:1028E0002091470431E030937C0320937B031092C6
:1028F0007A0310927903DC01ED91FC910190F08153
:10290000E02D60E009958701EE24E394F12CD1E0FD
:10291000C1508091430490914404CF3F91F1B0E2C3
:10292000EB16F104D8F00E947A1380914304909141
:10293000440420914704D0937C0320937B0310929E
:102940007A0310927903DC01ED91FC910190F08102
:10295000E02D60E00995EE24E394F12C809143048E
:1029600090914404F8016491DC01ED91FC91019097
:10297000F081E02D0995BFEFEB1AFB0A0F5F1F4FA7
:10298000C7CFDF91CF911F910F91FF90EF900C94E3
:102990007A13E0915304F09154049081809159048A
:1029A0008095892380838701C15008F438C0F801DD
:1029B00084912091410430914204232B29F00E94FC
:1029C0007D0C0F5F1F4FF0CF28E030E040E8E09132
:1029D0004F04F091500490915704582F5423D9F08C
:1029E0005081952B9083E0915104F0915204908195
:1029F00050915804952B9083E0915104F09152042A
:102A0000508190915804909595239083469521503C
:102A10003109E9F6D6CF508190959523E3CFDF9128
:102A2000CF911F910F91FF90EF9008951F93CF9337
:102A3000DF93EC018D8D9E8D009721F1162F29A13A
:102A400031E030937C0320937B0310927A03109241
:102A50007903DC01ED91FC910190F081E02D60E0C3
:102A600009958D8D9E8DDC01ED91FC910190F08199
:102A7000E02D612F09958D8D9E8DDF91CF911F9156
:102A80000C947A13ADA5BEA59C918BA98095892342
:102A90008C938B8D9C8D892B31F0862FDF91CF917C
:102AA0001F910C947D0C28E030E080E8A9A5BAA520
:102AB00099A9462F4823C1F04C91942B9C93ABA528
:102AC000BCA59C914AA9942B9C93ABA5BCA54C9109
:102AD0009AA9909594239C9386952150310931F7BA
:102AE000DF91CF911F9108954C9190959423E6CF5B
:102AF000DF92EF92FF920F931F93CF93DF9380911A
:102B0000430490914404892B09F4A5C020915B04EF
:102B100030915C0440915D0450915E0460E074E289
:102B200084EF90E00E9403232051310941095109AB
:102B300056954795379527952093B80064E089E628
:102B40009FE00E94611480912A0490912B048034AC
:102B5000910509F097C060E286E294E00E941615A4
:102B600060912A04615E86E294E00E94161520912D
:102B70002C0430912D04C901079697FD079633E088
:102B8000959587953A95E1F720912A0430912B0489
:102B9000829F8001839F100D929F100D1124C09180
:102BA0004504D091460480914304909144040C0F55
:102BB0001D1F009709F498C02091470431E030931D
:102BC0007C0320937B0310927A0310927903DC013B
:102BD000ED91FC910190F081E02D60E40995EE24E7
:102BE000E394F12CDD24D394809143049091440428
:102BF0000C171D0709F44FC0B0E2EB16F104D8F032
:102C00000E947A13809143049091440420914704D8
:102C1000D0927C0320937B0310927A031092790365
:102C2000DC01ED91FC910190F081E02D60E40995CB
:102C3000EE24E394F12C8091430490914404699133
:102C4000DC01ED91FC910190F081E02D0995BFEF41
:102C5000EB1AFB0AC9CF8091410490914204892B61
:102C600031F080916404909165040E94840CE0919D
:102C70005504F0915604908180915A0480958923DF
:102C800080835CCF60E086E294E00E94161560913C
:102C90002A04615068CF0E947A1380914304909176
:102CA0004404892B09F461C020915F0430916004D1
:102CB000409161045091620460E074E284EF90E01E
:102CC0000E94032320513109410951095695479526
:102CD000379527952093B800DF91CF911F910F91E1
:102CE000FF90EF90DF900895E0915304F091540429
:102CF000808190915904892B80830C171D0769F2FC
:102D000089912091410430914204232B19F00E94B3
:102D10007D0CF3CF28E030E040E8E0914F04F091E3
:102D2000500490915704582F5423D9F05081952B7B
:102D30009083E0915104F091520490815091580495
:102D4000952B9083E0915104F09152045081909121
:102D50005804909595239083469521503109E9F6C2
:102D6000CCCF508190959523E3CFE0915504F0911D
:102D70005604808190915A04892B8083ADCF1F9394
:102D8000CF93DF93EC01162F8D8D9E8D892BB1F1A2
:102D90002DA93EA94FA958AD60E074E284EF90E000
:102DA0000E94032320513109410951095695479545
:102DB000379527952093B80066EA111167EACE018E
:102DC0000E9416158D8D9E8D892B41F129AD3AAD4E
:102DD0004BAD5CAD60E074E284EF90E00E940323B1
:102DE0002051310941095109569547953795279545
:102DF0002093B800DF91CF911F9108958B8D9C8D0A
:102E0000892B21F08EAD9FAD0E94840CEFA5F8A90F
:102E100090818CA9809589238083CECFEFA5F8A9D6
:102E200080819CA9892B8083E5CF90E080E0089584
:102E3000CF93C0915F0361E0C11101C060E086E003
:102E40000E94310861E0C11160E084E0CF910C94F0
:102E50003108E0916003F0E0E65DFE4F61E08081C3
:102E6000811101C060E083E00E94310861E080913F
:102E70005F03811160E084E00C94310820912C0400
:102E800030912D04C901079697FD079623E095958B
:102E900087952A95E1F720912A0430912B04829F8F
:102EA000A001839F500D929F500D112470E060E0AF
:102EB00080914504909146040C942F25EF92FF9247
:102EC0000F931F930E943E1780E2E82EF12C00E83A
:102ED00010E02CE632E050E040E070E060E086E296
:102EE00094E00E946E111F910F91FF90EF900C944F
:102EF0007815EF92FF920F931F930E943E178FE178
:102F0000E82EF12C00E810E02CE730E050E040E043
:102F100070E060E086E294E00E946E111F910F91D4
:102F2000FF90EF900C947815FB0101900020E9F7D9
:102F30003197AF01461B570BDC01ED91FC910280EC
:102F4000F381E02D0994CF93DF93FC0144815581F7
:102F50006081718186E294E00E941909EC0166E8C3
:102F600071E086E294E00E9494178C0F9D1FDF9120
:102F7000CF9108950F931F93CF93DF938C01D0E0EF
:102F8000C0E06115710519F00E949417EC0166E824
:102F900071E0C8010E9494178C0F9D1FDF91CF91A3
:102FA0001F910F9108950F931F93CF93DF93EC011F
:102FB0000E94F5088C0166E871E0CE010E9494172A
:102FC000800F911FDF91CF911F910F91089568E6B7
:102FD00070E08DE793E00E94D31760E087E00E94E5
:102FE000310868EC70E080E090E00E94B50861E094
:102FF00087E00C9431080E942125FC018081918199
:10300000009711F00C94DB230895EF92FF920F9339
:103010001F93CF93DF93EC017B01198218821B82EF
:103020001A821D821C82FB0101900020E9F7319772
:103030008F01061B170BB8016F5F7F4F90E080E098
:103040000E9464240097B9F0998388831B830A83C4
:103050002C813D81232B11F4FC0110821D830C83F4
:10306000B70188819981DF91CF911F910F91FF90D6
:10307000EF900C94362588819981009711F00E9479
:10308000DB23198218821D821C821B821A82DF9127
:10309000CF911F910F91FF90EF90089585ED809350
:1030A000BC008091E9029091EA02A091EB02B091FC
:1030B000EC020796A11DB11D23E0B695A795979543
:1030C00087952A95D1F72091BC0024FD03C010926A
:1030D000320308954091E9025091EA026091EB02B7
:1030E0007091EC02452B462B472B69F30097A10505
:1030F000B10541F02AE22A95F1F700C00197A10934
:10310000B109E1CF8091E8020C94D4126091600380
:1031100090E080E00E94AA2260915F0381E090E04D
:103120000C94AA221F920F920FB60F9211242F9384
:103130003F938F939F93AF93BF938091710390912F
:103140007203A0917303B09174033091700323E074
:10315000230F2D3758F50196A11DB11D2093700343
:103160008093710390937203A0937303B0937403DD
:103170008091750390917603A0917703B0917803C5
:103180000196A11DB11D8093750390937603A093C2
:103190007703B0937803BF91AF919F918F913F9147
:1031A0002F910F900FBE0F901F90189526E8230FB8
:1031B0000296A11DB11DD2CF1F920F920FB60F9292
:1031C00011242F933F934F935F936F937F938F932C
:1031D0009F93AF93BF93EF93FF938DE793E00E948C
:1031E0009709FF91EF91BF91AF919F918F917F913F
:1031F0006F915F914F913F912F910F900FBE0F9064
:103200001F9018951F920F920FB60F9211242F93B3
:103210008F939F93EF93FF93E0918D03F0918E0333
:103220008081E0919303F091940382FD1BC0908113
:10323000809196038F5F8F7320919703821741F0DF
:10324000E0919603F0E0E358FC4F958F809396034E
:10325000FF91EF919F918F912F910F900FBE0F9043
:103260001F9018958081F4CF1F920F920FB60F9286
:1032700011242F933F934F935F936F937F938F937B
:103280009F93AF93BF93EF93FF938091B900887F93
:10329000803609F44AC0F0F5883209F4A7C018F561
:1032A000803109F49BC0B8F4882309F4F9C0883050
:1032B00009F494C0FF91EF91BF91AF919F918F91CD
:1032C0007F916F915F914F913F912F910F900FBE22
:1032D0000F901F901895883109F488C0803251F7FB
:1032E0008093310314C0803409F49DC040F48033CE
:1032F000B9F38833F9F68093310385ECB0C080359B
:1033000009F485C0883509F496C0883499F60E947E
:103310004E18D0CF883909F48CC038F5883729F099
:1033200050F4883611F0803729F683E08093320319
:103330001092300357C0883809F47BC0803919F0E7
:10334000803809F0B7CF80913003803208F071C027
:10335000E091300381E08E0F809330038091BB00B9
:10336000F0E0E05FFC4F80833DC0803B39F0E0F44B
:10337000803A09F479C0883A09F09CCF84E08093C0
:10338000320310920F0310920E03E0915B03F09151
:103390005C03099580910E0381110FC081E0809339
:1033A0000E031092EE0209C0803C09F4A6CF883CBF
:1033B00009F4A3CF883B09F07DCFE0910F0381E0B2
:1033C0008E0F80930F03F0E0E251FD4F80818093D8
:1033D000BB0090910F0380910E0329C08091570389
:1033E0008093BB0085EC8093BC0064CF9091560322
:1033F00080915503981758F5E091560381E08E0FA0
:1034000080935603F0E0EB5CFC4F8081E9CFE091C4
:10341000560381E08E0F809356038091BB00F0E04D
:10342000EB5CFC4F80839091560380915503981775
:10343000C8F285E8D8CFE091560381E08E0F8093E3
:1034400056038091BB00F0E0EB5CFC4F80838091E1
:10345000340381115CCF81E08093330384EA80934D
:10346000BC001092320326CF85EC8093BC001092F2
:10347000320380913003803230F4E0913003F0E089
:10348000E05FFC4F10826091300370E0E0915903DF
:10349000F0915A0380E193E00995109230030ACF2E
:1034A0001092310334CFEDE7F3E01382128248EE3D
:1034B00053E060E070E044835583668377838AE35A
:1034C00091E09183808385EC90E09587848784ECFC
:1034D00090E09787868780EC90E0918B808B81ECE1
:1034E00090E0938B828B82EC90E0958B848B86ECC2
:1034F00090E0978B868B118E128E138E148EAAE11C
:10350000B4E013961C921E92129714964D935D93FD
:103510006D937C9317978CE491E011969C938E9316
:10352000E6E2F4E01382128220E830E0358324835F
:1035300080E290E097838683318720879387828714
:10354000168A158614861786168681E0858B848BED
:103550002FEF3FEF338B228B318B208B878B108E9D
:10356000128E118E8EE591E091838083148E138EDE
:10357000B68FA58F10A2178E8FEF84A385A386A385
:1035800087A380A780E89AE1A6E0B0E085AB96AB80
:10359000A7ABB0AF80EA96E8A1E0B0E081AF92AF10
:1035A000A3AFB4AF80E586AF17AE0895CF93DF9396
:1035B000CDB7DEB7E8970FB6F894DEBF0FBECDBF2C
:1035C000789484B5826084BD84B5816084BD85B5FE
:1035D000826085BD85B5816085BD80916E0081600A
:1035E00080936E00109281008091810082608093B0
:1035F00081008091810081608093810080918000B2
:103600008160809380008091B10084608093B100DC
:103610008091B00081608093B00080917A008460D6
:1036200080937A0080917A00826080937A00809102
:103630007A00816080937A0080917A00806880931C
:103640007A001092C100E0918D03F0918E0382E028
:103650008083E0918903F0918A031082E0918B03CB
:10366000F0918C0380E1808310929503E0919103A7
:10367000F091920386E08083E0918F03F0919003B4
:10368000808180618083E0918F03F091900380813D
:1036900088608083E0918F03F0919003808180683F
:1036A0008083E0918F03F091900380818F7D8083F0
:1036B00068E97EE08DE793E00E94D31762E082E044
:1036C0000E945F0861E083E00E945F0861E084E09F
:1036D0000E945F0861E086E00E945F0861E087E089
:1036E0000E945F0861E087E00E94310880914504F4
:1036F00090914604892B41F520912C0430912D04A2
:10370000C901079697FD079623E0959587952A9519
:10371000E1F720912A0430912B04AC01429FC001B3
:10372000439F900D529F900D11240E943F23909330
:10373000460480934504892B39F46BE77EE08DE7DE
:1037400093E00E94D317FFCF0E943E1780912C0474
:1037500090912D0460912A0470912B04AC01819703
:103760000CF4DAC14054510957FF02C04F5F5F4F5C
:10377000559547956255710977FF02C06F5F7F4F7E
:103780007595679510E4E12EF12C02E510E02EE628
:103790003BE086E294E00E946E1182E08093480450
:1037A0008091430490914404892B09F4CDC18CE3AA
:1037B0008093470410925E0310925D0310927A0387
:1037C000109279030E94B61283EF98E090935C0305
:1037D00080935B0384EF98E090935A03809359039E
:1037E00080914E0487FD1EC061E00E945F0861E089
:1037F00080914E040E94310861E070E080E090E02A
:103800000E94B50860E080914E040E9431086AE091
:1038100070E080E090E00E94B50861E080914E0485
:103820000E9431088091430490914404892B09F44B
:103830004AC220915B0430915C0440915D04509138
:103840005E0460E074E284EF90E00E940323205164
:103850003109410951095695479537952795209388
:10386000B80064E08AE899E00E94611460912C0439
:10387000615086E294E00E94161564E086E899E0C3
:103880000E9461148091480460E1813009F064E194
:1038900086E294E00E94161564E082E899E00E94B6
:1038A00061148FE88093630480912A0490912B0423
:1038B0008038910509F01EC280912C0490912D044E
:1038C0008034910509F026C280914804813009F0C6
:1038D00034C28FE98093630412E16AED86E294E0DA
:1038E0000E941615612F86E294E00E94161561E889
:1038F00086E294E00E9416156091630486E294E0EB
:103900000E94161569ED86E294E00E9416158091DA
:10391000480462E2813009F061EF86E294E00E949F
:10392000161566E08CE799E00E94611480914304CB
:1039300090914404892B09F402C220915F043091D4
:103940006004409161045091620460E074E284EF8D
:1039500090E00E94032320513109410951095695F5
:103960004795379527952093B8000E943E1781E030
:1039700080933A0480933B0481E090E09093390473
:103980008093380490933704809336041092330464
:103990001092320410923504109234046AE67EE0EC
:1039A00086E294E00E94D31769E57EE086E294E027
:1039B0000E94D3170E94781590E080E00E94A22216
:1039C000833010F48093600381E090E00E94A22293
:1039D000823008F0BEC180935F030E9429170E94C5
:1039E000181767E47EE08DE793E00E94F508E09108
:1039F0006003F0E0EE0FFF1FE05DFE4F608171811C
:103A00008DE793E00E94BA1768E37EE08DE793E0CC
:103A10000E94F50880915F0363E37EE0811102C09C
:103A20006EE27EE08DE793E00E94D3170E94E708E4
:103A300060936B0370936C0380936D0390936E039C
:103A400084E2E6E0F1E0DE01119601900D928A95A4
:103A5000E1F7CE0101969EA78DA780E8482E512C54
:103A60000E943E1791E090933A0490933B04E1E06A
:103A7000F0E0F0933904E0933804F0933704E093D6
:103A80003604EDA5FEA521903190FEA7EDA780900C
:103A90003F049090400470903D04A0902E04B0909C
:103AA0002F0494012C5F3F4F3AAB29ABA4014A5F2E
:103AB0005F4F5CAB4BABC401029698AF8FAB2C5FF2
:103AC0003F4F3CA72BA738AA2FA690E080E030E01C
:103AD00020E04FEF5FEF6FEF7FEFEE24EA941FE7F8
:103AE000F12ECC24CA940FE7D02EEFA5F8A911919E
:103AF000F8ABEFA7112309F4BDC18114910409F4B7
:103B00008EC11A3009F02CC1EBA5FCA58491280FB9
:103B1000311D90E080E0E9CF4052510957FF02C0CB
:103B20004F5F5F4F559547956357710977FF02C007
:103B30006F5F7F4F75956795F0E2EF2EF12C03E7ED
:103B400010E02EE839E025CE61E080914C040E941F
:103B50005F0861E080914D040E945F0880914C04F1
:103B6000082E000C990BFC01E35DF04FE491F0E0AE
:103B7000EE0FFF1FE75EF04F259134913093540410
:103B800020935304FC01EF5BF04FE491E093590460
:103B900080914D04082E000C990BFC01E35DF04F61
:103BA000E491F0E0EE0FFF1FE75EF04FA591B491B6
:103BB000B0935604A0935504FC01EF5BF04FE491E1
:103BC000E0935A048C91E82BEC93809141049091FE
:103BD0004204892B09F434C01FB7F894809158032C
:103BE000811127C0E7E3FFE08491EBE4FFE09491CB
:103BF000E82FF0E0EE0FFF1FE15FF04FA591B491C9
:103C0000EC91E92321F461E08AE00E94310861E04F
:103C10008AE00E945F088CB580618CBD8CB58064A1
:103C20008CBD61E08DE00E945F0861E08BE00E9446
:103C30005F08809158038F5F809358031FBFD0CDDA
:103C400061E080914A040E945F0861E080914B042A
:103C50000E945F0880914A04082E000C990BFC0119
:103C6000E35DF04FE491F0E0EE0FFF1FE75EF04FF1
:103C7000259134913093500420934F04FC01EF5B65
:103C8000F04FE491E093570480914B04082E000C10
:103C9000990BFC01E35DF04FE491F0E0EE0FFF1FA4
:103CA000E75EF04FA591B491B0935204A0935104F4
:103CB000FC01EF5BF04FE491E09358048C91E095A8
:103CC000E823EC938DCD8091410490914204892B9F
:103CD00031F080916404909165040E94840CE0911D
:103CE0005504F0915604908180915A04809589235F
:103CF0008083B7CD8036910589F480912C04909112
:103D00002D04409739F480914804813029F480E1F2
:103D10008093630412E0E1CD8FEAFACF80349105FD
:103D2000C9F780912C0490912D04809799F7809188
:103D30004804813011F480E1CDCD8FECCBCDE09102
:103D40005504F0915604808190915A04892B808308
:103D50000CCEE0916003F0E0E35DFE4F80813BCE4E
:103D60001D3009F4C2CEE9A9FAA90491EBA9FCA976
:103D7000A491101708F4B9CEA11708F4B6CEEFA994
:103D8000F8ADA591B491101BF7E01F9FA00DB11DD8
:103D90001124FD0132966490319614911DAB319639
:103DA00014911EAB319604911696FD01A491002E3C
:103DB000000C110B772079F0F801E60DF11DE80FEA
:103DC000F91FAE16BF063CF4EBA5FCA58491280FA5
:103DD000311D90E080E0080F191FF901EA0FF11D75
:103DE000A7FDFA95DF010C151D050CF46801AE1551
:103DF000BF050CF47D01060D111D0150110960175E
:103E000071070CF4B8011DA9A10FB11D11974A1734
:103E10005B070CF4AD011EA9810F911D66CE1A300F
:103E200019F4285F3F4F75CE1D3009F45ECE772020
:103E300049F0FC013696AE16BF0624F4285F3F4FCA
:103E400090E080E0DC011696FC0135966E177F0746
:103E50000CF4BF01F90137964E175F070CF4AF0160
:103E60008C159D050CF46C012E153F050CF47901A1
:103E7000CD013BCE6C157D050CF459C16C197D0943
:103E80006F5F7F4F4E155F050CF454C14E195F09EB
:103E90004F5F5F4F80E890E0861B970B9695879564
:103EA000909333048093320480E290E0841B950B5E
:103EB000969587959093350480933404B10186E2FA
:103EC00094E00E94BA17C20162E170E00E94EF2202
:103ED0009B01EE24E394F12C0EE110E04EE150E062
:103EE00070E060E086E294E00E94F30F0E94781593
:103EF00066EA70E080E090E00E94B50820E8420E9B
:103F0000511C30E8431639E0530609F0A9CD4EEFB5
:103F10005FEF58AB4FA701E010E00E943E1744242A
:103F20004394512C401A510A2FA438A821E030E0C4
:103F3000A801405F5F4F60E470E086E294E00E9479
:103F4000671121E030E040E150E0401B510B60E49C
:103F500070E086E294E00E94671121E030E040E1E9
:103F600050E0B801605C7F4F86E294E00E946711E8
:103F700060E470E0601B710B21E030E040E150E054
:103F800086E294E00E946711380181E090E09CA7EE
:103F90008BA7F12CE12C57FC08C091E0691A71083D
:103FA000E2E02E0E311C420C531CFFEFEF1AFF0A09
:103FB0002BA53CA52E5F3F4F3CA72BA7420E531EBF
:103FC000470130E4830E911C21E030E0630140E1C1
:103FD000C40ED11CA601B40186E294E00E946711D0
:103FE00090E4A92EB12CAE18BF0821E030E0A60164
:103FF000B50186E294E00E94671121E030E040E1E3
:10400000C42ED12CC618D708A601B40186E294E0CC
:104010000E94671121E030E0A601B50186E294E03C
:104020000E946711670150E1C50ED11C21E030E00C
:10403000A601530180E4A80EB11CB50186E294E00C
:104040000E94671121E030E0A60160E4C62ED12C69
:10405000C618D708B60186E294E00E94671170E1A5
:10406000872E912C8E189F0821E030E0A401B50125
:1040700086E294E00E94671121E030E0A401B601DD
:1040800086E294E00E946711E614F7040CF483CFF3
:104090000E9478156EE170E080E090E00E94B50823
:1040A0000E5F1F4FEFA5F8A93497F8ABEFA70531C6
:1040B000110509F032CF00E810E0EE24E394F12C72
:1040C00084E1282E312CE6E0CE2ED12CF0E1AF2E6B
:1040D000B12CA0E08A2EA0E09A2E80916F0381116E
:1040E0003DC00E94E70840906B0350906C036090C5
:1040F0006D0370906E03DC01CB0184199509A6094C
:10410000B709883BFBE09F07A105B10508F449C149
:1041100080379741A105B10580F480916A03811130
:1041200040C181E080936A030E945E173AC170E04B
:1041300060E0A8CE50E040E0ADCE81E080936F0318
:1041400010926A030E94E708609366037093670306
:1041500080936803909369030E9479170E940D0869
:10416000892B09F0D0C00E94E7082B013C0162E3D3
:1041700070E080E090E00E94B5080E940D08019771
:1041800009F4C1C00E940D08892B91F40E94E70830
:104190006419750986099709683B7B40810591057B
:1041A00038F46AE070E080E090E00E94B508EACF61
:1041B0000E94E708DC01CB0184199509A609B7091B
:1041C0008C3241E09407A105B10548F460EC7EE033
:1041D0008DE793E00E94D3170E94E71794C08C3DAF
:1041E0009540A105B10508F0E8C081E090915F031A
:1041F000911180E080935F030E9418170E94861837
:104200006BED7EE08DE793E00E94F50880915F03FF
:1042100066ED7EE0811102C061ED7EE08DE793E006
:104220000E94D3170E943E1781E080933A04809346
:104230003B04F0923904E0923804F0923704E092A3
:1042400036046EE871E0CE0185960E94051829A516
:104250003AA546E0429FC001439F900D1124F8010A
:10426000E81BF90BCF0196958795909333048093C3
:104270003204D0923504C0923404CE0185960E9457
:10428000A31782E080933A0480933B0480915F03FC
:1042900062E172E0811102C069E871E0CE0101962D
:1042A0000E9405182D813E814CE0429FC001439F32
:1042B000900D11249801281B390BC90196958795FB
:1042C0009093330480933204B0923504A092340466
:1042D000CE0101960E94A3170E94781581E0809379
:1042E00065030E94E7086093610370936203809303
:1042F000630390936403CE0101960E94FD17CE01E3
:1043000085960E94FD1780916503882301F10E9424
:10431000E7084090610350906203609063037090DF
:104320006403641975098609970969387341810521
:104330009105B8F11092650380916A03882309F40E
:10434000DAC00E945E178091650381112AC00E9425
:10435000E708409066035090670360906803709090
:104360006903E0916A039B01AC01241935094609F0
:10437000570929013A01EE2309F4C0C038EB43166E
:104380003BE053066104710460F010926A0360938D
:1043900066037093670380936803909369030E9498
:1043A00079178114910409F498CE0E948309882317
:1043B00009F489CE0E94000086CE809160038F5F51
:1043C000833008F095C0809360030E9429170E94F3
:1043D00018170E94861868EF7EE08DE793E00E9430
:1043E000F508E0916003F0E0EE0FFF1FE05DFE4F87
:1043F000608171818DE793E00E94BA170E943E1799
:1044000082E080933A0480933B04F0923904E09276
:104410003804F0923704E0923604E0916003F0E053
:10442000EE0FFF1FE05DFE4F60817181FB01019087
:104430000020E9F73197E61BF70B2CE02E9FC00117
:104440002F9F900D1124A801481B590BCA01969566
:104450008795909333048093320484E090E09093A6
:1044600035048093340486E294E00E94BA1781E018
:1044700080933A0480933B0480915F0362E172E091
:10448000811102C069E871E0CE0101960E94051811
:104490004D815E8126E0249FC001259F900D11244F
:1044A000F801E81BF90BCF0196958795909333049B
:1044B00080933204309235042092340469817A81E9
:1044C00086E294E00E9419090E94781581E08093A9
:1044D00065030E94E7086093610370936203809311
:1044E000630390936403CE0101960E94FD1774CE7E
:1044F000109260036ACF0E94791725CF40E24416DC
:104500004FEB540642E06406710408F44ACF21E000
:1045100020936A0360936603709367038093680334
:104520009093690301CE8EE591E0909327048093E8
:1045300026048091450490914604009711F00C9454
:10454000DB230895F999FECF92BD81BDF89A992792
:1045500080B50895262FF999FECF1FBA92BD81BD6F
:1045600020BD0FB6F894FA9AF99A0FBE01960895F5
:104570002F923F924F925F926F927F928F929F9273
:10458000AF92BF92CF92DF92EF92FF920F931F9361
:10459000CF93DF93CDB7DEB7CA1BDB0B0FB6F89412
:1045A000DEBF0FBECDBF09942A88398848885F8452
:1045B0006E847D848C849B84AA84B984C884DF80C3
:1045C000EE80FD800C811B81AA81B981CE0FD11DA7
:1045D0000FB6F894DEBF0FBECDBFED01089597FB77
:1045E000072E16F4009407D077FD09D00E942523EA
:1045F00007FC05D03EF4909581959F4F08957095E6
:1046000061957F4F0895A1E21A2EAA1BBB1BFD01E5
:104610000DC0AA1FBB1FEE1FFF1FA217B307E407A1
:10462000F50720F0A21BB30BE40BF50B661F771FF9
:10463000881F991F1A9469F76095709580959095D9
:104640009B01AC01BD01CF010895AA1BBB1B51E129
:1046500007C0AA1FBB1FA617B70710F0A61BB70BF2
:10466000881F991F5A95A9F780959095BC01CD0197
:104670000895EE0FFF1F0590F491E02D09940F931C
:104680001F93CF93DF938230910510F482E090E086
:10469000E0916804F091690430E020E0B0E0A0E02F
:1046A000309799F42115310509F44AC0281B390BBC
:1046B00024303105D8F58A819B816115710589F116
:1046C000FB0193838283FE0111C0408151810281ED
:1046D000138148175907E0F04817590799F41097C4
:1046E00061F012960C93129713961C933296CF0199
:1046F000DF91CF911F910F9108950093680410935B
:104700006904F4CF2115310551F04217530738F0F1
:10471000A901DB019A01BD01DF01F801C1CFEF0161
:10472000F9CF9093690480936804CDCFFE01E20F26
:10473000F31F819391932250310939832883D7CF76
:104740002091660430916704232B41F420910201EB
:104750003091030130936704209366042091000197
:10476000309101012115310541F42DB73EB740913B
:10477000040150910501241B350BE0916604F09172
:104780006704E217F307A0F42E1B3F0B2817390725
:1047900078F0AC014E5F5F4F2417350748F04E0F9D
:1047A0005F1F5093670440936604819391939FCF5A
:1047B000F0E0E0E09CCFCF93DF930097E9F0FC01BD
:1047C000329713821282A0916804B0916904ED01BE
:1047D00030E020E01097A1F420813181820F931FF7
:1047E00020916604309167042817390709F061C0E9
:1047F000F0936704E0936604DF91CF910895EA0196
:10480000CE17DF07E8F54A815B819E01411551050E
:10481000B1F7E901FB83EA8349915991C40FD51F90
:10482000EC17FD0761F4808191810296840F951F3A
:10483000E90199838883828193819B838A83F0E055
:10484000E0E012968D919C9113970097B9F52D9108
:104850003C911197CD010296820F931F209166041F
:10486000309167042817390739F6309751F51092BF
:10487000690410926804B0936704A0936604BCCFE7
:10488000D383C28340815181840F951FC817D907F4
:1048900061F44E5F5F4F88819981480F591F5183A2
:1048A00040838A819B81938382832115310509F09E
:1048B000B0CFF0936904E09368049ECFFD01DC0162
:1048C000C0CF13821282D7CFB0E0A0E0EAE6F4E2D4
:1048D0000C94BA228C01009751F4CB010E943F2323
:1048E0008C01C801CDB7DEB7E0E10C94D622FC0103
:1048F000E60FF71F9C0122503109E217F30708F475
:104900009DC0D901CD91DC911197C617D70798F0BA
:10491000C530D10530F3CE0104978617970708F309
:10492000C61BD70B2297C193D1936D937C93CF0174
:104930000E94DB23D6CF5B01AC1ABD0A4C018C0E62
:104940009D1EA0916804B0916904512C412CF12C5A
:10495000E12C109731F580916604909167048815D9
:10496000990509F05CC04616570608F058C08091BA
:10497000000190910101009741F48DB79EB74091DD
:10498000040150910501841B950BE817F90708F005
:1049900055C0F0936704E0936604F9017183608366
:1049A000A0CF8D919C91119712966C9012971396AF
:1049B0007C901397A815B90559F56C0142E0C40E17
:1049C000D11CCA14DB0420F1AC014A195B09DA01DD
:1049D0001296159780F06282738251834083D901C9
:1049E0006D937C93E114F10471F0D7011396FC935D
:1049F000EE93129776CF22968C0F9D1FF90191832B
:104A00008083F301EFCFF0936904E093680469CFEA
:104A10004816590608F42C017D01D3019ACFCB0129
:104A20000E943F237C01009749F0AE01B8010E942B
:104A30002625C8010E94DB23870153CF10E000E048
:104A400050CF81E090E0F8940C943D25FB01DC010F
:104A500002C001900D9241505040D8F70895DC01FA
:104A600001C06D9341505040E0F70895FB01DC0117
:104A700001900D920020E1F7089517E0C8EBD7E010
:104A800004C0FE010E9439232196C93BD107C9F712
:044A9000F894FFCFC8
:104A940000006A0480009C01A701B601C301D30190
:104AA400E401F401FC010B0217022702370247025A
:104AB400570267027702850290020000010001019B
:104AC4009C029F02A30200000000B90919094609CB
:104AD400060A770955096909000000004B131E13E3
:104AE4001517E30717130413F51200000000C20E94
:104AF400190915178E12CD0BE30767113F115B11CE
:104B04004F11E111E307880CBF163D0B860B88108B
:104B14006B10F30F940F0D0A003530487A00566974
:104B240064656F20466F726D61743A005345474166
:104B3400204E4F4D4144005357495443484C45532C
:104B440053204D4F440076312E30204172647569F4
:104B54006E6F00496E697469616C697A696E672E5B
:104B64002E2E004C6F6164696E6720526567696F11
:104B74006E733A005B204555205D20205B20555321
:104B840041205D005B204A4150205D005669646508
:104B94006F20466F726D6174733A003530487A2025
:104BA4002F203630487A004861726477617265203C
:104BB400436865636B3A004A50312E2E2E2E2E2EFA
:104BC4002E2E2E204F4B004A50332E2E2E2E2E2EBC
:104BD4002E2E2E204F4B0056462E2E2E2E2E2E2EAF
:104BE4002E2E2E204F4B0052657365742E2E2E2EC2
:104BF4002E2E2E204F4B004F4C45442E2E2E2E2E63
:104C04002E2E2E204F4B0053797374656D20526500
:104C1400616479210057656C636F6D6520746F0062
:104C240053454741204E4F4D4144210045550055C1
:084C34005341004A4150000009
:00000001FF
